{
  "contractName": "Channels",
  "abi": [
    {
      "constant": false,
      "inputs": [],
      "name": "unpause",
      "outputs": [],
      "payable": false,
      "stateMutability": "nonpayable",
      "type": "function"
    },
    {
      "constant": true,
      "inputs": [
        {
          "name": "account",
          "type": "address"
        }
      ],
      "name": "isPauser",
      "outputs": [
        {
          "name": "",
          "type": "bool"
        }
      ],
      "payable": false,
      "stateMutability": "view",
      "type": "function"
    },
    {
      "constant": true,
      "inputs": [],
      "name": "paused",
      "outputs": [
        {
          "name": "",
          "type": "bool"
        }
      ],
      "payable": false,
      "stateMutability": "view",
      "type": "function"
    },
    {
      "constant": false,
      "inputs": [],
      "name": "renouncePauser",
      "outputs": [],
      "payable": false,
      "stateMutability": "nonpayable",
      "type": "function"
    },
    {
      "constant": false,
      "inputs": [],
      "name": "renounceOwnership",
      "outputs": [],
      "payable": false,
      "stateMutability": "nonpayable",
      "type": "function"
    },
    {
      "constant": true,
      "inputs": [
        {
          "name": "",
          "type": "bytes32"
        }
      ],
      "name": "channels",
      "outputs": [
        {
          "name": "sender",
          "type": "address"
        },
        {
          "name": "recipient",
          "type": "address"
        },
        {
          "name": "openBlock",
          "type": "uint32"
        },
        {
          "name": "deposit",
          "type": "uint72"
        }
      ],
      "payable": false,
      "stateMutability": "view",
      "type": "function"
    },
    {
      "constant": false,
      "inputs": [
        {
          "name": "account",
          "type": "address"
        }
      ],
      "name": "addPauser",
      "outputs": [],
      "payable": false,
      "stateMutability": "nonpayable",
      "type": "function"
    },
    {
      "constant": false,
      "inputs": [],
      "name": "pause",
      "outputs": [],
      "payable": false,
      "stateMutability": "nonpayable",
      "type": "function"
    },
    {
      "constant": true,
      "inputs": [],
      "name": "owner",
      "outputs": [
        {
          "name": "",
          "type": "address"
        }
      ],
      "payable": false,
      "stateMutability": "view",
      "type": "function"
    },
    {
      "constant": true,
      "inputs": [],
      "name": "isOwner",
      "outputs": [
        {
          "name": "",
          "type": "bool"
        }
      ],
      "payable": false,
      "stateMutability": "view",
      "type": "function"
    },
    {
      "constant": true,
      "inputs": [],
      "name": "MAX_DEPOSIT",
      "outputs": [
        {
          "name": "",
          "type": "uint256"
        }
      ],
      "payable": false,
      "stateMutability": "view",
      "type": "function"
    },
    {
      "constant": false,
      "inputs": [
        {
          "name": "newOwner",
          "type": "address"
        }
      ],
      "name": "transferOwnership",
      "outputs": [],
      "payable": false,
      "stateMutability": "nonpayable",
      "type": "function"
    },
    {
      "anonymous": false,
      "inputs": [
        {
          "indexed": true,
          "name": "_sender",
          "type": "address"
        },
        {
          "indexed": true,
          "name": "_recipient",
          "type": "address"
        },
        {
          "indexed": false,
          "name": "deposit",
          "type": "uint72"
        }
      ],
      "name": "ChannelCreated",
      "type": "event"
    },
    {
      "anonymous": false,
      "inputs": [
        {
          "indexed": true,
          "name": "_sender",
          "type": "address"
        },
        {
          "indexed": true,
          "name": "_recipient",
          "type": "address"
        },
        {
          "indexed": true,
          "name": "_openBlock",
          "type": "uint32"
        },
        {
          "indexed": false,
          "name": "_newDeposit",
          "type": "uint72"
        }
      ],
      "name": "ChannelDepositIncreased",
      "type": "event"
    },
    {
      "anonymous": false,
      "inputs": [
        {
          "indexed": true,
          "name": "_sender",
          "type": "address"
        },
        {
          "indexed": true,
          "name": "_recipient",
          "type": "address"
        },
        {
          "indexed": true,
          "name": "_openBlock",
          "type": "uint32"
        },
        {
          "indexed": false,
          "name": "_payout",
          "type": "uint72"
        }
      ],
      "name": "ChannelClosed",
      "type": "event"
    },
    {
      "anonymous": false,
      "inputs": [
        {
          "indexed": false,
          "name": "_newMaxDeposit",
          "type": "uint256"
        }
      ],
      "name": "MaxDepositChanged",
      "type": "event"
    },
    {
      "anonymous": false,
      "inputs": [
        {
          "indexed": false,
          "name": "account",
          "type": "address"
        }
      ],
      "name": "Paused",
      "type": "event"
    },
    {
      "anonymous": false,
      "inputs": [
        {
          "indexed": false,
          "name": "account",
          "type": "address"
        }
      ],
      "name": "Unpaused",
      "type": "event"
    },
    {
      "anonymous": false,
      "inputs": [
        {
          "indexed": true,
          "name": "account",
          "type": "address"
        }
      ],
      "name": "PauserAdded",
      "type": "event"
    },
    {
      "anonymous": false,
      "inputs": [
        {
          "indexed": true,
          "name": "account",
          "type": "address"
        }
      ],
      "name": "PauserRemoved",
      "type": "event"
    },
    {
      "anonymous": false,
      "inputs": [
        {
          "indexed": true,
          "name": "previousOwner",
          "type": "address"
        },
        {
          "indexed": true,
          "name": "newOwner",
          "type": "address"
        }
      ],
      "name": "OwnershipTransferred",
      "type": "event"
    },
    {
      "constant": false,
      "inputs": [
        {
          "name": "_recipient",
          "type": "address"
        }
      ],
      "name": "openChannel",
      "outputs": [],
      "payable": true,
      "stateMutability": "payable",
      "type": "function"
    },
    {
      "constant": false,
      "inputs": [
        {
          "name": "_recipient",
          "type": "address"
        },
        {
          "name": "_openBlock",
          "type": "uint32"
        }
      ],
      "name": "increaseDeposit",
      "outputs": [],
      "payable": true,
      "stateMutability": "payable",
      "type": "function"
    },
    {
      "constant": false,
      "inputs": [
        {
          "name": "_sender",
          "type": "address"
        },
        {
          "name": "_openBlock",
          "type": "uint32"
        },
        {
          "name": "_amt",
          "type": "uint72"
        },
        {
          "name": "_sig",
          "type": "bytes"
        }
      ],
      "name": "closeChannel",
      "outputs": [],
      "payable": false,
      "stateMutability": "nonpayable",
      "type": "function"
    },
    {
      "constant": true,
      "inputs": [
        {
          "name": "_key",
          "type": "bytes32"
        },
        {
          "name": "_amt",
          "type": "uint72"
        },
        {
          "name": "_sig",
          "type": "bytes"
        }
      ],
      "name": "verifySignature",
      "outputs": [
        {
          "name": "",
          "type": "bool"
        }
      ],
      "payable": false,
      "stateMutability": "view",
      "type": "function"
    },
    {
      "constant": true,
      "inputs": [
        {
          "name": "_sender",
          "type": "address"
        },
        {
          "name": "_recipient",
          "type": "address"
        },
        {
          "name": "_openBlock",
          "type": "uint32"
        }
      ],
      "name": "getKey",
      "outputs": [
        {
          "name": "",
          "type": "bytes32"
        }
      ],
      "payable": false,
      "stateMutability": "pure",
      "type": "function"
    },
    {
      "constant": false,
      "inputs": [
        {
          "name": "_newMaxDeposit",
          "type": "uint256"
        }
      ],
      "name": "changeMaxDeposit",
      "outputs": [],
      "payable": false,
      "stateMutability": "nonpayable",
      "type": "function"
    }
  ],
  "bytecode": "0x608060405268015af1d78b58c40000600355336000806101000a81548173ffffffffffffffffffffffffffffffffffffffff021916908373ffffffffffffffffffffffffffffffffffffffff1602179055506000809054906101000a900473ffffffffffffffffffffffffffffffffffffffff1673ffffffffffffffffffffffffffffffffffffffff16600073ffffffffffffffffffffffffffffffffffffffff167f8be0079c531659141344cd1fd0a4f28419497f9722a3daafe3b4186f6b6457e060405160405180910390a3620000e73362000108640100000000026401000000009004565b6000600260006101000a81548160ff021916908315150217905550620002ca565b6200012c816001620001726401000000000262002366179091906401000000009004565b8073ffffffffffffffffffffffffffffffffffffffff167f6719d08c1888103bea251a4ed56406bd0c3e69723c8a1686e017e7bbe159b6f860405160405180910390a250565b600073ffffffffffffffffffffffffffffffffffffffff168173ffffffffffffffffffffffffffffffffffffffff1614151515620001af57600080fd5b620001ca828262000235640100000000026401000000009004565b151515620001d757600080fd5b60018260000160008373ffffffffffffffffffffffffffffffffffffffff1673ffffffffffffffffffffffffffffffffffffffff16815260200190815260200160002060006101000a81548160ff0219169083151502179055505050565b60008073ffffffffffffffffffffffffffffffffffffffff168273ffffffffffffffffffffffffffffffffffffffff16141515156200027357600080fd5b8260000160008373ffffffffffffffffffffffffffffffffffffffff1673ffffffffffffffffffffffffffffffffffffffff16815260200190815260200160002060009054906101000a900460ff16905092915050565b6124a880620002da6000396000f3006080604052600436106100fc576000357c0100000000000000000000000000000000000000000000000000000000900463ffffffff1680632abb5e9d146101015780633f4ba83a1461013757806346fbf68e1461014e57806353fefd7d146101a95780635c975abb146101d65780636ef8d66d14610205578063715018a61461021c5780637a7ebd7b14610233578063803c83831461030757806382dc1ec4146103965780638456cb59146103d957806384eba1a5146103f05780638da5cb5b146104945780638f32d59b146104eb578063dd5967c31461051a578063e745c75714610545578063ec36c4e31461058b578063f2fde38b1461060b575b600080fd5b610135600480360381019080803573ffffffffffffffffffffffffffffffffffffffff16906020019092919050505061064e565b005b34801561014357600080fd5b5061014c610b9b565b005b34801561015a57600080fd5b5061018f600480360381019080803573ffffffffffffffffffffffffffffffffffffffff169060200190929190505050610c4a565b604051808215151515815260200191505060405180910390f35b3480156101b557600080fd5b506101d460048036038101908080359060200190929190505050610c67565b005b3480156101e257600080fd5b506101eb610e22565b604051808215151515815260200191505060405180910390f35b34801561021157600080fd5b5061021a610e39565b005b34801561022857600080fd5b50610231610e44565b005b34801561023f57600080fd5b506102626004803603810190808035600019169060200190929190505050610f16565b604051808573ffffffffffffffffffffffffffffffffffffffff1673ffffffffffffffffffffffffffffffffffffffff1681526020018473ffffffffffffffffffffffffffffffffffffffff1673ffffffffffffffffffffffffffffffffffffffff1681526020018363ffffffff1663ffffffff1681526020018268ffffffffffffffffff1668ffffffffffffffffff16815260200194505050505060405180910390f35b34801561031357600080fd5b50610378600480360381019080803573ffffffffffffffffffffffffffffffffffffffff169060200190929190803573ffffffffffffffffffffffffffffffffffffffff169060200190929190803563ffffffff169060200190929190505050610fab565b60405180826000191660001916815260200191505060405180910390f35b3480156103a257600080fd5b506103d7600480360381019080803573ffffffffffffffffffffffffffffffffffffffff1690602001909291905050506110e9565b005b3480156103e557600080fd5b506103ee611109565b005b3480156103fc57600080fd5b5061047a6004803603810190808035600019169060200190929190803568ffffffffffffffffff169060200190929190803590602001908201803590602001908080601f01602080910402602001604051908101604052809392919081815260200183838082843782019150505050505091929192905050506111b9565b604051808215151515815260200191505060405180910390f35b3480156104a057600080fd5b506104a961136e565b604051808273ffffffffffffffffffffffffffffffffffffffff1673ffffffffffffffffffffffffffffffffffffffff16815260200191505060405180910390f35b3480156104f757600080fd5b50610500611397565b604051808215151515815260200191505060405180910390f35b34801561052657600080fd5b5061052f6113ee565b6040518082815260200191505060405180910390f35b610589600480360381019080803573ffffffffffffffffffffffffffffffffffffffff169060200190929190803563ffffffff1690602001909291905050506113f4565b005b34801561059757600080fd5b50610609600480360381019080803573ffffffffffffffffffffffffffffffffffffffff169060200190929190803563ffffffff169060200190929190803568ffffffffffffffffff169060200190929190803590602001908201803590602001919091929391929390505050611943565b005b34801561061757600080fd5b5061064c600480360381019080803573ffffffffffffffffffffffffffffffffffffffff169060200190929190505050611d1c565b005b600080600061065b612416565b600260009054906101000a900460ff1615151561067757600080fd5b600034111515610715576040517f08c379a00000000000000000000000000000000000000000000000000000000081526004018080602001828103825260228152602001807f4465706f736974206d7573742062652067726561746572207468616e207a657281526020017f6f2e00000000000000000000000000000000000000000000000000000000000081525060400191505060405180910390fd5b60035434111515156107b5576040517f08c379a000000000000000000000000000000000000000000000000000000000815260040180806020018281038252602b8152602001807f4465706f7369742063616e6e6f742062652067726561746572207468616e204d81526020017f41585f4445504f5349542e00000000000000000000000000000000000000000081525060400191505060405180910390fd5b600073ffffffffffffffffffffffffffffffffffffffff168573ffffffffffffffffffffffffffffffffffffffff161415151561085a576040517f08c379a000000000000000000000000000000000000000000000000000000000815260040180806020018281038252601f8152602001807f526563697069656e742063616e6e6f7420626520307820616464726573732e0081525060200191505060405180910390fd5b3373ffffffffffffffffffffffffffffffffffffffff168573ffffffffffffffffffffffffffffffffffffffff16141515156108fe576040517f08c379a000000000000000000000000000000000000000000000000000000000815260040180806020018281038252601b8152602001807f526563697069656e742063616e6e6f742062652073656e6465722e000000000081525060200191505060405180910390fd5b349350348468ffffffffffffffffff1614151561091757fe5b439250610925338685610fab565b9150600060046000846000191660001916815260200190815260200160002060010160149054906101000a900463ffffffff1663ffffffff1614151561096a57600080fd5b33816000019073ffffffffffffffffffffffffffffffffffffffff16908173ffffffffffffffffffffffffffffffffffffffff168152505084816020019073ffffffffffffffffffffffffffffffffffffffff16908173ffffffffffffffffffffffffffffffffffffffff168152505082816040019063ffffffff16908163ffffffff168152505083816060019068ffffffffffffffffff16908168ffffffffffffffffff16815250508060046000846000191660001916815260200190815260200160002060008201518160000160006101000a81548173ffffffffffffffffffffffffffffffffffffffff021916908373ffffffffffffffffffffffffffffffffffffffff16021790555060208201518160010160006101000a81548173ffffffffffffffffffffffffffffffffffffffff021916908373ffffffffffffffffffffffffffffffffffffffff16021790555060408201518160010160146101000a81548163ffffffff021916908363ffffffff16021790555060608201518160020160006101000a81548168ffffffffffffffffff021916908368ffffffffffffffffff1602179055509050508473ffffffffffffffffffffffffffffffffffffffff163373ffffffffffffffffffffffffffffffffffffffff167f8a8559a2e1cdd0ea30426b9cebfe2ac9873be2c3b4fb9f561a5b2c59a075bccf86604051808268ffffffffffffffffff1668ffffffffffffffffff16815260200191505060405180910390a35050505050565b610ba433610c4a565b1515610baf57600080fd5b600260009054906101000a900460ff161515610bca57600080fd5b6000600260006101000a81548160ff0219169083151502179055507f5db9ee0a495bf2e6ff9c91a7834c1ba4fdd244a5e8aa4e537bd38aeae4b073aa33604051808273ffffffffffffffffffffffffffffffffffffffff1673ffffffffffffffffffffffffffffffffffffffff16815260200191505060405180910390a1565b6000610c60826001611d3b90919063ffffffff16565b9050919050565b610c6f611397565b1515610c7a57600080fd5b600081111515610cf2576040517f08c379a000000000000000000000000000000000000000000000000000000000815260040180806020018281038252601f8152602001807f43616e6e6f7420736574206d6178206465706f73697420746f207a65726f2e0081525060200191505060405180910390fd5b7fffffffffffffffffffffffffffffffffffffffffffffffffffffffffffffffff68ffffffffffffffffff168111151515610de1576040517f08c379a000000000000000000000000000000000000000000000000000000000815260040180806020018281038252604e8152602001807f4d6178206465706f736974206d757374206265206c657373207468616e20746881526020017f65206d61782073746f726167652076616c756520666f7220746865206465706f81526020017f736974206461746120747970652e00000000000000000000000000000000000081525060600191505060405180910390fd5b806003819055507f99bada54b2a917867d043b855b7725d9ecfca8069e0f793345b940f1b4f9890e816040518082815260200191505060405180910390a150565b6000600260009054906101000a900460ff16905090565b610e4233611dcf565b565b610e4c611397565b1515610e5757600080fd5b600073ffffffffffffffffffffffffffffffffffffffff166000809054906101000a900473ffffffffffffffffffffffffffffffffffffffff1673ffffffffffffffffffffffffffffffffffffffff167f8be0079c531659141344cd1fd0a4f28419497f9722a3daafe3b4186f6b6457e060405160405180910390a360008060006101000a81548173ffffffffffffffffffffffffffffffffffffffff021916908373ffffffffffffffffffffffffffffffffffffffff160217905550565b60046020528060005260406000206000915090508060000160009054906101000a900473ffffffffffffffffffffffffffffffffffffffff16908060010160009054906101000a900473ffffffffffffffffffffffffffffffffffffffff16908060010160149054906101000a900463ffffffff16908060020160009054906101000a900468ffffffffffffffffff16905084565b6000838383604051602001808473ffffffffffffffffffffffffffffffffffffffff1673ffffffffffffffffffffffffffffffffffffffff166c010000000000000000000000000281526014018373ffffffffffffffffffffffffffffffffffffffff1673ffffffffffffffffffffffffffffffffffffffff166c010000000000000000000000000281526014018263ffffffff1663ffffffff167c010000000000000000000000000000000000000000000000000000000002815260040193505050506040516020818303038152906040526040518082805190602001908083835b6020831015156110b3578051825260208201915060208101905060208303925061108e565b6001836020036101000a038019825116818451168082178552505050505050905001915050604051809103902090509392505050565b6110f233610c4a565b15156110fd57600080fd5b61110681611e29565b50565b61111233610c4a565b151561111d57600080fd5b600260009054906101000a900460ff1615151561113957600080fd5b6001600260006101000a81548160ff0219169083151502179055507f62e78cea01bee320cd4e420270b5ea74000d11b0c9f74754ebdbfc544b05a25833604051808273ffffffffffffffffffffffffffffffffffffffff1673ffffffffffffffffffffffffffffffffffffffff16815260200191505060405180910390a1565b60008061128685856040516020018083600019166000191681526020018268ffffffffffffffffff1668ffffffffffffffffff1677010000000000000000000000000000000000000000000000028152600901925050506040516020818303038152906040526040518082805190602001908083835b602083101515611254578051825260208201915060208101905060208303925061122f565b6001836020036101000a0380198251168184511680821785525050505050509050019150506040518091039020611e83565b905060046000866000191660001916815260200190815260200160002060000160009054906101000a900473ffffffffffffffffffffffffffffffffffffffff1673ffffffffffffffffffffffffffffffffffffffff166112e78285611fa6565b73ffffffffffffffffffffffffffffffffffffffff1614801561135357508368ffffffffffffffffff1660046000876000191660001916815260200190815260200160002060020160009054906101000a900468ffffffffffffffffff1668ffffffffffffffffff1610155b156113615760019150611366565b600091505b509392505050565b60008060009054906101000a900473ffffffffffffffffffffffffffffffffffffffff16905090565b60008060009054906101000a900473ffffffffffffffffffffffffffffffffffffffff1673ffffffffffffffffffffffffffffffffffffffff163373ffffffffffffffffffffffffffffffffffffffff1614905090565b60035481565b6000806000600260009054906101000a900460ff1615151561141557600080fd5b6000341115156114b3576040517f08c379a00000000000000000000000000000000000000000000000000000000081526004018080602001828103825260298152602001807f4d7573742070726f76696465207061796d656e7420746f20696e63726561736581526020017f206465706f7369742e000000000000000000000000000000000000000000000081525060400191505060405180910390fd5b349250348368ffffffffffffffffff1614151561155e576040517f08c379a000000000000000000000000000000000000000000000000000000000815260040180806020018281038252602b8152602001807f4d6573736167652076616c7565206d7573742066697420696e2075696e74373281526020017f206461746120747970652e00000000000000000000000000000000000000000081525060400191505060405180910390fd5b611569338686610fab565b9150600060046000846000191660001916815260200190815260200160002060010160149054906101000a900463ffffffff1663ffffffff1611151561163d576040517f08c379a000000000000000000000000000000000000000000000000000000000815260040180806020018281038252603f8152602001807f43616e6e6f7420696e637265617365206465706f736974206f6e20612063686181526020017f6e6e656c207468617420686173206e6f74206265656e20637265617465642e0081525060400191505060405180910390fd5b60046000836000191660001916815260200190815260200160002060000160009054906101000a900473ffffffffffffffffffffffffffffffffffffffff1673ffffffffffffffffffffffffffffffffffffffff163373ffffffffffffffffffffffffffffffffffffffff16141515611744576040517f08c379a00000000000000000000000000000000000000000000000000000000081526004018080602001828103825260378152602001807f4d7573742062652073656e646572206f66206368616e6e656c20696e206f726481526020017f657220746f20696e637265617365206465706f7369742e00000000000000000081525060400191505060405180910390fd5b60046000836000191660001916815260200190815260200160002060020160009054906101000a900468ffffffffffffffffff169050611798838268ffffffffffffffffff1661216590919063ffffffff16565b90506003548168ffffffffffffffffff1611151515611845576040517f08c379a00000000000000000000000000000000000000000000000000000000081526004018080602001828103825260288152602001807f546f74616c206465706f7369742063616e6e6f7420657863656465204d41585f81526020017f4445504f5349542e00000000000000000000000000000000000000000000000081525060400191505060405180910390fd5b8060046000846000191660001916815260200190815260200160002060020160006101000a81548168ffffffffffffffffff021916908368ffffffffffffffffff16021790555060046000836000191660001916815260200190815260200160002060010160149054906101000a900463ffffffff1663ffffffff168573ffffffffffffffffffffffffffffffffffffffff163373ffffffffffffffffffffffffffffffffffffffff167f395a6622084f30b3f3092ff0409a748b705f92b97d108bc4dbea9bde01a81b4a84604051808268ffffffffffffffffff1668ffffffffffffffffff16815260200191505060405180910390a45050505050565b6000806000600260009054906101000a900460ff1615151561196457600080fd5b61196f883389610fab565b92508568ffffffffffffffffff1660046000856000191660001916815260200190815260200160002060020160009054906101000a900468ffffffffffffffffff1668ffffffffffffffffff1610151515611a32576040517f08c379a000000000000000000000000000000000000000000000000000000000815260040180806020018281038252601d8152602001807f5f616d742065786365656473206368616e6e656c206465706f7369742e00000081525060200191505060405180910390fd5b611a6f838787878080601f0160208091040260200160405190810160405280939291908181526020018383808284378201915050505050506111b9565b1515611ae3576040517f08c379a00000000000000000000000000000000000000000000000000000000081526004018080602001828103825260128152602001807f496e76616c6964207369676e61747572652e000000000000000000000000000081525060200191505060405180910390fd5b60046000846000191660001916815260200190815260200160002060020160009054906101000a900468ffffffffffffffffff1668ffffffffffffffffff169150600460008460001916600019168152602001908152602001600020600080820160006101000a81549073ffffffffffffffffffffffffffffffffffffffff02191690556001820160006101000a81549073ffffffffffffffffffffffffffffffffffffffff02191690556001820160146101000a81549063ffffffff02191690556002820160006101000a81549068ffffffffffffffffff021916905550503373ffffffffffffffffffffffffffffffffffffffff166108fc8768ffffffffffffffffff169081150290604051600060405180830381858888f19350505050158015611c14573d6000803e3d6000fd5b508568ffffffffffffffffff16821115611c9057611c468668ffffffffffffffffff168361219c90919063ffffffff16565b90508773ffffffffffffffffffffffffffffffffffffffff166108fc829081150290604051600060405180830381858888f19350505050158015611c8e573d6000803e3d6000fd5b505b8663ffffffff163373ffffffffffffffffffffffffffffffffffffffff168973ffffffffffffffffffffffffffffffffffffffff167f554be0265205db273197a3595d28c131741b07e14150ac13e59dff00194f421b89604051808268ffffffffffffffffff1668ffffffffffffffffff16815260200191505060405180910390a45050505050505050565b611d24611397565b1515611d2f57600080fd5b611d38816121bd565b50565b60008073ffffffffffffffffffffffffffffffffffffffff168273ffffffffffffffffffffffffffffffffffffffff1614151515611d7857600080fd5b8260000160008373ffffffffffffffffffffffffffffffffffffffff1673ffffffffffffffffffffffffffffffffffffffff16815260200190815260200160002060009054906101000a900460ff16905092915050565b611de38160016122b790919063ffffffff16565b8073ffffffffffffffffffffffffffffffffffffffff167fcd265ebaf09df2871cc7bd4133404a235ba12eff2041bb89d9c714a2621c7c7e60405160405180910390a250565b611e3d81600161236690919063ffffffff16565b8073ffffffffffffffffffffffffffffffffffffffff167f6719d08c1888103bea251a4ed56406bd0c3e69723c8a1686e017e7bbe159b6f860405160405180910390a250565b600060606040805190810160405280601c81526020017f19457468657265756d205369676e6564204d6573736167653a0a333200000000815250905080836040516020018083805190602001908083835b602083101515611ef95780518252602082019150602081019050602083039250611ed4565b6001836020036101000a0380198251168184511680821785525050505050509050018260001916600019168152602001925050506040516020818303038152906040526040518082805190602001908083835b602083101515611f715780518252602082019150602081019050602083039250611f4c565b6001836020036101000a0380198251168184511680821785525050505050509050019150506040518091039020915050919050565b60008060008060418551141515612025576040517f08c379a00000000000000000000000000000000000000000000000000000000081526004018080602001828103825260198152602001807f496e76616c6964207369676e6174757265206c656e6774682e0000000000000081525060200191505060405180910390fd5b6020850151925060408501519150606085015160001a9050601b8160ff16101561205057601b810190505b601b8160ff1614806120655750601c8160ff16145b15156120d9576040517f08c379a000000000000000000000000000000000000000000000000000000000815260040180806020018281038252601a8152602001807f496e76616c6964207369676e61747572652076657273696f6e2e00000000000081525060200191505060405180910390fd5b600186828585604051600081526020016040526040518085600019166000191681526020018460ff1660ff1681526020018360001916600019168152602001826000191660001916815260200194505050505060206040516020810390808403906000865af1158015612150573d6000803e3d6000fd5b50505060206040510351935050505092915050565b60008082840190508368ffffffffffffffffff168168ffffffffffffffffff161015151561219257600080fd5b8091505092915050565b6000808383111515156121ae57600080fd5b82840390508091505092915050565b600073ffffffffffffffffffffffffffffffffffffffff168173ffffffffffffffffffffffffffffffffffffffff16141515156121f957600080fd5b8073ffffffffffffffffffffffffffffffffffffffff166000809054906101000a900473ffffffffffffffffffffffffffffffffffffffff1673ffffffffffffffffffffffffffffffffffffffff167f8be0079c531659141344cd1fd0a4f28419497f9722a3daafe3b4186f6b6457e060405160405180910390a3806000806101000a81548173ffffffffffffffffffffffffffffffffffffffff021916908373ffffffffffffffffffffffffffffffffffffffff16021790555050565b600073ffffffffffffffffffffffffffffffffffffffff168173ffffffffffffffffffffffffffffffffffffffff16141515156122f357600080fd5b6122fd8282611d3b565b151561230857600080fd5b60008260000160008373ffffffffffffffffffffffffffffffffffffffff1673ffffffffffffffffffffffffffffffffffffffff16815260200190815260200160002060006101000a81548160ff0219169083151502179055505050565b600073ffffffffffffffffffffffffffffffffffffffff168173ffffffffffffffffffffffffffffffffffffffff16141515156123a257600080fd5b6123ac8282611d3b565b1515156123b857600080fd5b60018260000160008373ffffffffffffffffffffffffffffffffffffffff1673ffffffffffffffffffffffffffffffffffffffff16815260200190815260200160002060006101000a81548160ff0219169083151502179055505050565b608060405190810160405280600073ffffffffffffffffffffffffffffffffffffffff168152602001600073ffffffffffffffffffffffffffffffffffffffff168152602001600063ffffffff168152602001600068ffffffffffffffffff16815250905600a165627a7a7230582062ae84c51e3cfa811aabcbb7ba5fb40113e9c3f8a57add979df92199e1f19b0f0029",
  "source": "pragma solidity ^0.4.24;\n\nimport \"./openZeppelin/Ownable.sol\";\nimport \"./openZeppelin/Pausable.sol\";\nimport \"./openZeppelin/SafeMath.sol\";\n\n\n/**\n * @title Channels\n * @author Nick Ward\n * @dev Uni-directional payment channels contract\n */\ncontract Channels is Ownable, Pausable {\n\n    // TODO: Review and explain Ownable and Paudable contracts, and how their\n    // inheritance effects this contract\n\n    // Libraries -- SafeMath used to perform math operations with integer\n    // overflow checks\n    using SafeMath256 for uint;\n    using SafeMath72 for uint72;\n\n    // ===============\n    // State Variables:\n    // ===============\n\n    // Limit max deposit to 25 ETH\n    uint public MAX_DEPOSIT = 10 ** 18 * 25;\n\n    \n\n    // TODO: Add a lookup mapping? address => address => bytes32 id\n    // This makes a lookup possible but limits users to one channel between them\n    // Could also use address => address => bytes32[5]\n\n    // TODO: explain issue with opening 2 channels w/ same sender and recipient in same block\n    // (the second one will revert)\n\n    // TODO: add getChannel() and getChannelByKey() functions\n\n\n    // TODO: remove\n    // Current blocks/day hovers around 6k\n    // 6588202 blocks mined as of 10/26/18\n    // 4294967295 is max value for uint32\n    // 6588202 + 6000(num_days) = 4294967295\n    // num_days = (4294967295 - 6588202) / 6000\n    // num_days = 714730 = 1958 years\n    // uint32 will overflow in the year 3976\n\n    // This struct stores the data for each payment channel. uint32 and uint72\n    // are used to take advantage of struct packing, loweing gas costs of\n    // payment channels\n    struct Channel {\n        address sender;\n        address recipient;\n        // The block number in which the channel was opened. At current \n        // mining rate of ~6000 blocks/day, uint32 will overflow in the \n        // year 3976\n        uint32 openBlock;   \n        // Sender deposit. Using uint72 limits max possible deposit to ~4722 ETH\n        uint72 deposit; \n    }\n\n    // channel key => Channel\n    // channel key is keccak256(sender, recipient, openBlock). This is\n    // used to prevent various types of signature replay attacks\n    mapping (bytes32 => Channel) public channels;\n\n\n    // ===============\n    // Events:\n    // ===============\n\n    event ChannelCreated(\n        address indexed _sender,\n        address indexed _recipient,\n        uint72 deposit\n    );\n    event ChannelDepositIncreased(\n        address indexed _sender,\n        address indexed _recipient,\n        uint32 indexed _openBlock,\n        uint72 _newDeposit\n    );\n    event ChannelClosed(\n        address indexed _sender,\n        address indexed _recipient,\n        uint32 indexed _openBlock,\n        uint72 _payout\n    );\n    event MaxDepositChanged(\n        uint _newMaxDeposit\n    );\n\n\n    // ===============\n    // State Transition Functions:\n    // ===============\n\n    /**\n    * @dev Opens a payment channel between msg.sender and _recipient. \n    * msg.value becomes the channel deposit. Deposit must be > 0, but can\n    * be increased at a later time using increaseDeposit()\n    * @param _recipient The address of the channel recipient \n    */\n    function openChannel(address _recipient) external whenNotPaused payable {\n\n        // Revert if no deposit is staked. NOTE: It's not currently possible\n        // to access revert strings in web3 or the latest stable version \n        // of truffle, but they are included throughout the contract for \n        // future uses\n        require(msg.value > 0, \"Deposit must be greater than zero.\");\n        // Revert if deposit is greater than the max deposit\n        require(msg.value <= MAX_DEPOSIT, \"Deposit cannot be greater than MAX_DEPOSIT.\");\n        // Revert if recipient is 0 address\n        require(_recipient != address(0), \"Recipient cannot be 0x address.\");\n        // Revert if recipient is also sender\n        require(_recipient != msg.sender, \"Recipient cannot be sender.\");\n        \n        // Store deposit as uint72\n        uint72 _deposit = uint72(msg.value);\n\n        // Revert if deposit amount overflowed (statement should always be \n        // true if MAX_DEPOSIT is set correctly, so use assert() for check)\n        assert(uint(_deposit) == msg.value);\n\n        // set openBlock to current block number\n        uint32 openBlock = uint32(block.number);\n\n        // Create channel key. Key is keccak256(sender, recipient, openBlock)\n        bytes32 key = getKey(msg.sender, _recipient, openBlock);\n\n        // Revert if channel already exists\n        require(channels[key].openBlock == 0);\n\n        // Initialize the channel\n        Channel memory _channel;\n        _channel.sender = msg.sender;\n        _channel.recipient = _recipient;\n        _channel.openBlock = openBlock;\n        _channel.deposit = _deposit;\n        \n        // Add to channels mapping\n        channels[key] = _channel;\n\n        emit ChannelCreated(msg.sender, _recipient, _deposit);\n    }\n\n\n    function increaseDeposit(address _recipient, uint32 _openBlock) \n        external \n        whenNotPaused\n        payable \n    {\n\n        // TODO: gas optimization: store channel in memory instead of reading from state data repeatedly\n\n        // Revert if deposit increase amount is zero\n        require(msg.value > 0, \"Must provide payment to increase deposit.\");\n\n        // Revert if deposit increase amount overflows deposit data type\n        uint72 depositIncrease = uint72(msg.value);\n        require(uint(depositIncrease) == msg.value, \"Message value must fit in uint72 data type.\");\n\n        // Get channel key. Key is keccak256(sender, recipient, openBlock)\n        bytes32 key = getKey(msg.sender, _recipient, _openBlock);\n        \n        // Revert if channel does not exist\n        require(channels[key].openBlock > 0, \"Cannot increase deposit on a channel that has not been created.\");\n        // Only the channel sender can increase the deposit\n        require(msg.sender == channels[key].sender, \"Must be sender of channel in order to increase deposit.\");\n        \n        // Increase the deposit\n        uint72 _deposit = channels[key].deposit;\n        _deposit = _deposit.add(depositIncrease);\n\n        // Revert if MAX_DEPOSIT is exceeded\n        require(_deposit <= MAX_DEPOSIT, \"Total deposit cannot excede MAX_DEPOSIT.\");\n\n        channels[key].deposit = _deposit;\n\n        emit ChannelDepositIncreased(msg.sender, _recipient, channels[key].openBlock, _deposit);\n    }\n\n\n    function closeChannel(address _sender, uint32 _openBlock, uint72 _amt, bytes _sig) external whenNotPaused {\n        // Note that this function can only be called by the recipient of the channel\n\n        bytes32 key = getKey(_sender, msg.sender, _openBlock); \n\n        // Revert if requested transfer amount exceeds the channel deposit\n        require(channels[key].deposit >= _amt, \"_amt exceeds channel deposit.\");\n\n        // Signature verification must return true\n        require(verifySignature(key, _amt, _sig), \"Invalid signature.\");\n\n        \n\n        // TODO:\n        // Store copy of channel (or at least of channel deposit) in memory\n        // Delete channel\n        // transfer _amt to recipient\n        // transfer remaining balance to sender\n\n        // Channel memory channelToClose = channels[key];\n\n        uint _deposit = channels[key].deposit;\n\n        // put in some require statements for remaining checks\n\n        delete channels[key];\n\n        msg.sender.transfer(_amt);\n\n        if (_deposit > _amt) {\n            uint senderRefund = uint((_deposit).sub(_amt));\n            _sender.transfer(senderRefund);\n        }\n        \n        emit ChannelClosed(_sender, msg.sender, _openBlock, _amt);\n    }\n\n    // TODO: remove\n    // function closeChannelWithSplitSig() {}\n    // function verifySplitSig() {}\n\n    \n\n    // ===============\n    // Constant Functions:\n    // ===============\n\n\n    // TODO: Clearly document what the expected message to sign is\n    // Note that it is not currently possible to sign type-structured data,\n    // which makes for a very dangerous UI because MetaMask requires you to\n    // sign a hash and most user's wont verify that hash. EIP-712 aims to fix this\n\n    // Same as closeChannel(), but no state changes\n    // public bc called by closeChannel(), but doubles as a check for users\n    // to confirm the validity of a recieved signature or calibrate their\n    // off-chain signature verification function\n    function verifySignature(bytes32 _key, uint72 _amt, bytes _sig) public view returns (bool) {\n        \n        // Note: verifySignature can be called by anyone to check if a message is valid,\n        // although in most circumstances you would want to build your own method\n        // of checking off-chain, or else defeat the purpose of the payment channel\n    \n        // require(channels[_key].deposit >= _amt);\n\n        bytes32 message = prefix(keccak256(abi.encodePacked(_key, _amt)));\n\n        if (recover(message, _sig) == channels[_key].sender && channels[_key].deposit >= _amt) {\n            return true;\n        } else {\n            return false;\n        }\n    } \n\n\n    /**\n    * @dev Prefixes a given message hash with the header required by the\n    * ecrecover() function\n    * @param _hash The message that was signed\n    * @return The hash of the 'header' and the original message (this is\n    * the value expected by ecrecover())\n    */\n    // TODO: explain reasoning behind prefixing message\n    function prefix(bytes32 _hash) internal pure returns (bytes32) {\n        bytes memory header = \"\\x19Ethereum Signed Message:\\n32\";\n        return keccak256(abi.encodePacked(header, _hash));\n    }\n\n    /**\n    * @dev Returns the public key of the signer given a message hash and an \n    * elliptic curve signature (the entire signature)\n    * @param _hash The message that was signed. **NOTE: message hash must \n    * be 'prefixed' with the string \"\\x19Ethereum Signed Message:\\n32\"\n    * (see prefix() function)\n    * @param _sig The signature \n    * @return The address of the signer\n    */\n    function recover(bytes32 _hash, bytes _sig) internal pure returns (address) {\n        bytes32 r;\n        bytes32 s;\n        uint8 v;\n\n        require(_sig.length == 65, \"Invalid signature length.\");\n\n        assembly {\n            r := mload(add(_sig, 32))\n            s := mload(add(_sig, 64))\n            v := byte(0, mload(add(_sig, 96)))\n        }\n\n        // ecrecover expects version to be 27 or 28, but could also be 0 or 1\n        if (v < 27) {\n            v += 27;\n        }\n\n        require(v == 27 || v == 28, \"Invalid signature version.\");\n\n        return ecrecover(_hash, v, r, s);\n    }\n\n\n\n\n    /**\n    * @dev Returns the unique channel key used in the channels mapping\n    * @param _sender Address that is sending the channel payout\n    * @param _recipient Address that is receiving the channel payout\n    * @param _openBlock The block number at which the channel was created\n    * @return The unique channel key\n    */\n    function getKey(address _sender, address _recipient, uint32 _openBlock) \n        public \n        pure \n        returns (bytes32) \n    {\n        // Note that openBlock is hashed as a uint32\n        return keccak256(abi.encodePacked(_sender, _recipient, _openBlock));\n    }\n\n\n    // ===============\n    // Owner Functions:\n    // ===============\n\n    /**\n    * @dev Allows the contract owner to change the maximum deposit amount\n    * @param _newMaxDeposit New max deposit amount. Must be > 0 and < the \n    * max value for the uint type used to store the deposit amount\n    * in the Channel struct\n    */\n    function changeMaxDeposit(uint _newMaxDeposit) public onlyOwner {\n        require(_newMaxDeposit > 0, \"Cannot set max deposit to zero.\");\n\n        // Max deposit must remain <= the max storage value for uint72 \n        // to prevent integer overflow in Channel struct\n        require(_newMaxDeposit <= uint(uint72(-1)), \"Max deposit must be less than the max storage value for the deposit data type.\");\n\n        // Change the max deposit\n        MAX_DEPOSIT = _newMaxDeposit;\n\n        emit MaxDepositChanged(_newMaxDeposit);\n    }\n\n\n}",
  "sourcePath": "/home/nick/BlockchainProjects/saitoPaymentChannels/contracts/GasTesterChannels.sol",
  "compiler": {
    "name": "solc",
    "version": "0.4.24+commit.e67f0147.Emscripten.clang"
  },
  "schemaVersion": "2.0.1",
  "updatedAt": "2018-10-26T19:45:53.046Z"
}